:020000007D2958
:1000060083120313FD01F801700803190034740606
:10001600FA00FA1BFD09FB01F41F1328F409F40A80
:10002600F01F1728F009F00A70087404FA00FA1B8A
:100036003B287408F802F00D700DF80D7408F807E7
:10004600F00D0630FC00700DF80D74087018F802FB
:10005600701CF807F00DFC0B2628701CF8077B189F
:100066004928FD1F0034F009F00AF809F80A00349F
:10007600F41F4628F01B43287008F800F0013428C6
:10008600F001F00A0034F009FB0A1C28F80A74088B
:100096007802031D3428F801F00AF01F3428FF34D3
:0200A600080050
:1000A8000A3083120313F4002508F00003207008B7
:1000B800A6000A30F4002508F00003207808F000B4
:1000C800881370088700260886001A30FC00F8306C
:0E00D800FD00FD0B6D28FC0B6D2800000800DC
:0E00E6008312031322088A00210882000800FA
:1000F40083120313051C00290518812800291730D1
:10010400A30080302306F0008030043A7002031C00
:100114009E280C308800A40132302402031897284A
:100124002308A5005420A40A8E2805189C288601BB
:1001340087019E28A30383280518A128FF280330DC
:10014400A30080302306F0008030003A7002031CC4
:10015400BE280A308800A401323024020318B728CC
:100164002308A5005420A40AAE280518BC2886013B
:100174008701BE28A303A3280518C128FF280F3030
:10018400A30080302306F0008030043A7002031C80
:10019400DE2821308800A401323024020318D72835
:1001A4002308A5005420A40ACE280518DC288601BB
:1001B4008701DE28A303C3280518E128FF2803309C
:1001C400A30080302306F0008030003A7002031C44
:1001D400FE2811308800A401323024020318F728C5
:1001E4002308A5005420A40AEE280518FC2886013B
:0E01F4008701FE28A303E32881287A2808004B
:1002020073208A110A128000840AA10A0319A20A21
:08021200F003031D012908009F
:10021A008312031305187C29051C14297C298518C7
:10022A007B2920080130031D0030A0008230FC0029
:10023A00DD30FD00FD0B1F29FC0B1F29000000000B
:10024A002008003A031D52290330A30080302306F8
:10025A00F0008030003A7002031C41290A308800FD
:10026A00A4013230240203183F292308A500542090
:10027A00A40A3629A3032B29213088000B30FB005E
:10028A002630FC005D30FD00FD0B4929FC0B492995
:10029A00FB0B4929000000007A290330A3008030B3
:1002AA002306F0008030003A7002031C6A291130DC
:1002BA008800A40132302402031868292308A50003
:1002CA005420A40A5F29A30354290C3088000B3058
:1002DA00FB002630FC005D30FD00FD0B7229FC0B93
:1002EA007229FB0B72290000000014290D2908004D
:1002FA0083120313A001073083169F00860183121D
:10030A008601831687018312870183168801831267
:10031A008801831688138312881783160514851497
:10032A0083120518A4290D218230FC00DD30FD005E
:10033A00FD0B9D29FC0B9D29000000009529051C39
:10034A00B2297A208230FC00DD30FD00FD0BAB299A
:0E035A00FC0BAB2900000000A4299529B32953
:02400E004A2F37
:00000001FF
